{
  "_format": "hh-sol-artifact-1",
  "contractName": "TaskBlockchainNFT",
  "sourceName": "contracts/TaskBlockchainNFT.sol",
  "abi": [
    {
      "inputs": [],
      "stateMutability": "payable",
      "type": "constructor"
    },
    {
      "anonymous": false,
      "inputs": [
        {
          "indexed": true,
          "internalType": "address",
          "name": "owner",
          "type": "address"
        },
        {
          "indexed": true,
          "internalType": "address",
          "name": "approved",
          "type": "address"
        },
        {
          "indexed": true,
          "internalType": "uint256",
          "name": "tokenId",
          "type": "uint256"
        }
      ],
      "name": "Approval",
      "type": "event"
    },
    {
      "anonymous": false,
      "inputs": [
        {
          "indexed": true,
          "internalType": "address",
          "name": "owner",
          "type": "address"
        },
        {
          "indexed": true,
          "internalType": "address",
          "name": "operator",
          "type": "address"
        },
        {
          "indexed": false,
          "internalType": "bool",
          "name": "approved",
          "type": "bool"
        }
      ],
      "name": "ApprovalForAll",
      "type": "event"
    },
    {
      "anonymous": false,
      "inputs": [
        {
          "indexed": false,
          "internalType": "uint256",
          "name": "_fromTokenId",
          "type": "uint256"
        },
        {
          "indexed": false,
          "internalType": "uint256",
          "name": "_toTokenId",
          "type": "uint256"
        }
      ],
      "name": "BatchMetadataUpdate",
      "type": "event"
    },
    {
      "anonymous": false,
      "inputs": [
        {
          "indexed": false,
          "internalType": "uint256",
          "name": "_tokenId",
          "type": "uint256"
        }
      ],
      "name": "MetadataUpdate",
      "type": "event"
    },
    {
      "anonymous": false,
      "inputs": [
        {
          "indexed": true,
          "internalType": "address",
          "name": "previousOwner",
          "type": "address"
        },
        {
          "indexed": true,
          "internalType": "address",
          "name": "newOwner",
          "type": "address"
        }
      ],
      "name": "OwnershipTransferred",
      "type": "event"
    },
    {
      "anonymous": false,
      "inputs": [
        {
          "indexed": true,
          "internalType": "address",
          "name": "from",
          "type": "address"
        },
        {
          "indexed": true,
          "internalType": "address",
          "name": "to",
          "type": "address"
        },
        {
          "indexed": true,
          "internalType": "uint256",
          "name": "tokenId",
          "type": "uint256"
        }
      ],
      "name": "Transfer",
      "type": "event"
    },
    {
      "inputs": [
        {
          "internalType": "address",
          "name": "to",
          "type": "address"
        },
        {
          "internalType": "uint256",
          "name": "tokenId",
          "type": "uint256"
        }
      ],
      "name": "approve",
      "outputs": [],
      "stateMutability": "nonpayable",
      "type": "function"
    },
    {
      "inputs": [
        {
          "internalType": "address",
          "name": "owner",
          "type": "address"
        }
      ],
      "name": "balanceOf",
      "outputs": [
        {
          "internalType": "uint256",
          "name": "",
          "type": "uint256"
        }
      ],
      "stateMutability": "view",
      "type": "function"
    },
    {
      "inputs": [],
      "name": "baseTokenUri",
      "outputs": [
        {
          "internalType": "string",
          "name": "",
          "type": "string"
        }
      ],
      "stateMutability": "view",
      "type": "function"
    },
    {
      "inputs": [
        {
          "internalType": "uint256",
          "name": "tokenId",
          "type": "uint256"
        }
      ],
      "name": "getApproved",
      "outputs": [
        {
          "internalType": "address",
          "name": "",
          "type": "address"
        }
      ],
      "stateMutability": "view",
      "type": "function"
    },
    {
      "inputs": [
        {
          "internalType": "address",
          "name": "owner",
          "type": "address"
        },
        {
          "internalType": "address",
          "name": "operator",
          "type": "address"
        }
      ],
      "name": "isApprovedForAll",
      "outputs": [
        {
          "internalType": "bool",
          "name": "",
          "type": "bool"
        }
      ],
      "stateMutability": "view",
      "type": "function"
    },
    {
      "inputs": [],
      "name": "isPublicMintEnabled",
      "outputs": [
        {
          "internalType": "bool",
          "name": "",
          "type": "bool"
        }
      ],
      "stateMutability": "view",
      "type": "function"
    },
    {
      "inputs": [],
      "name": "maxPerWallet",
      "outputs": [
        {
          "internalType": "uint256",
          "name": "",
          "type": "uint256"
        }
      ],
      "stateMutability": "view",
      "type": "function"
    },
    {
      "inputs": [],
      "name": "maxSupply",
      "outputs": [
        {
          "internalType": "uint256",
          "name": "",
          "type": "uint256"
        }
      ],
      "stateMutability": "view",
      "type": "function"
    },
    {
      "inputs": [
        {
          "internalType": "uint256",
          "name": "quantity_arg",
          "type": "uint256"
        }
      ],
      "name": "mint",
      "outputs": [],
      "stateMutability": "payable",
      "type": "function"
    },
    {
      "inputs": [],
      "name": "mintPrice",
      "outputs": [
        {
          "internalType": "uint256",
          "name": "",
          "type": "uint256"
        }
      ],
      "stateMutability": "view",
      "type": "function"
    },
    {
      "inputs": [],
      "name": "name",
      "outputs": [
        {
          "internalType": "string",
          "name": "",
          "type": "string"
        }
      ],
      "stateMutability": "view",
      "type": "function"
    },
    {
      "inputs": [],
      "name": "owner",
      "outputs": [
        {
          "internalType": "address",
          "name": "",
          "type": "address"
        }
      ],
      "stateMutability": "view",
      "type": "function"
    },
    {
      "inputs": [
        {
          "internalType": "uint256",
          "name": "tokenId",
          "type": "uint256"
        }
      ],
      "name": "ownerOf",
      "outputs": [
        {
          "internalType": "address",
          "name": "",
          "type": "address"
        }
      ],
      "stateMutability": "view",
      "type": "function"
    },
    {
      "inputs": [],
      "name": "renounceOwnership",
      "outputs": [],
      "stateMutability": "nonpayable",
      "type": "function"
    },
    {
      "inputs": [
        {
          "internalType": "address",
          "name": "from",
          "type": "address"
        },
        {
          "internalType": "address",
          "name": "to",
          "type": "address"
        },
        {
          "internalType": "uint256",
          "name": "tokenId",
          "type": "uint256"
        }
      ],
      "name": "safeTransferFrom",
      "outputs": [],
      "stateMutability": "nonpayable",
      "type": "function"
    },
    {
      "inputs": [
        {
          "internalType": "address",
          "name": "from",
          "type": "address"
        },
        {
          "internalType": "address",
          "name": "to",
          "type": "address"
        },
        {
          "internalType": "uint256",
          "name": "tokenId",
          "type": "uint256"
        },
        {
          "internalType": "bytes",
          "name": "data",
          "type": "bytes"
        }
      ],
      "name": "safeTransferFrom",
      "outputs": [],
      "stateMutability": "nonpayable",
      "type": "function"
    },
    {
      "inputs": [
        {
          "internalType": "address",
          "name": "operator",
          "type": "address"
        },
        {
          "internalType": "bool",
          "name": "approved",
          "type": "bool"
        }
      ],
      "name": "setApprovalForAll",
      "outputs": [],
      "stateMutability": "nonpayable",
      "type": "function"
    },
    {
      "inputs": [
        {
          "internalType": "string",
          "name": "baseTokenUri_arg",
          "type": "string"
        }
      ],
      "name": "setBaseTokenUri",
      "outputs": [],
      "stateMutability": "nonpayable",
      "type": "function"
    },
    {
      "inputs": [
        {
          "internalType": "bool",
          "name": "isPublicMintEnabled_arg",
          "type": "bool"
        }
      ],
      "name": "setIsPublicMintEnabled",
      "outputs": [],
      "stateMutability": "nonpayable",
      "type": "function"
    },
    {
      "inputs": [
        {
          "internalType": "bytes4",
          "name": "interfaceId",
          "type": "bytes4"
        }
      ],
      "name": "supportsInterface",
      "outputs": [
        {
          "internalType": "bool",
          "name": "",
          "type": "bool"
        }
      ],
      "stateMutability": "view",
      "type": "function"
    },
    {
      "inputs": [],
      "name": "symbol",
      "outputs": [
        {
          "internalType": "string",
          "name": "",
          "type": "string"
        }
      ],
      "stateMutability": "view",
      "type": "function"
    },
    {
      "inputs": [
        {
          "internalType": "uint256",
          "name": "tokenId_",
          "type": "uint256"
        }
      ],
      "name": "tokenURI",
      "outputs": [
        {
          "internalType": "string",
          "name": "",
          "type": "string"
        }
      ],
      "stateMutability": "view",
      "type": "function"
    },
    {
      "inputs": [],
      "name": "totalSupply",
      "outputs": [
        {
          "internalType": "uint256",
          "name": "",
          "type": "uint256"
        }
      ],
      "stateMutability": "view",
      "type": "function"
    },
    {
      "inputs": [
        {
          "internalType": "address",
          "name": "from",
          "type": "address"
        },
        {
          "internalType": "address",
          "name": "to",
          "type": "address"
        },
        {
          "internalType": "uint256",
          "name": "tokenId",
          "type": "uint256"
        }
      ],
      "name": "transferFrom",
      "outputs": [],
      "stateMutability": "nonpayable",
      "type": "function"
    },
    {
      "inputs": [
        {
          "internalType": "address",
          "name": "newOwner",
          "type": "address"
        }
      ],
      "name": "transferOwnership",
      "outputs": [],
      "stateMutability": "nonpayable",
      "type": "function"
    },
    {
      "inputs": [
        {
          "internalType": "address",
          "name": "",
          "type": "address"
        }
      ],
      "name": "walletMints",
      "outputs": [
        {
          "internalType": "uint256",
          "name": "",
          "type": "uint256"
        }
      ],
      "stateMutability": "view",
      "type": "function"
    },
    {
      "inputs": [],
      "name": "withdraw",
      "outputs": [],
      "stateMutability": "nonpayable",
      "type": "function"
    },
    {
      "inputs": [],
      "name": "withdrawWallet",
      "outputs": [
        {
          "internalType": "address payable",
          "name": "",
          "type": "address"
        }
      ],
      "stateMutability": "view",
      "type": "function"
    }
  ],
  "bytecode": "0x60806040526040518060400160405280600e81526020017f5461736b426c6f636b636861696e0000000000000000000000000000000000008152506040518060400160405280600281526020017f5250000000000000000000000000000000000000000000000000000000000000815250816000908051906020019062000088929190620001bf565b508060019080519060200190620000a1929190620001bf565b505050620000c4620000b8620000f160201b60201c565b620000f960201b60201c565b66354a6ba7a1800060088190555060006009819055506103e8600a819055506003600b81905550620002d4565b600033905090565b6000600760009054906101000a900473ffffffffffffffffffffffffffffffffffffffff16905081600760006101000a81548173ffffffffffffffffffffffffffffffffffffffff021916908373ffffffffffffffffffffffffffffffffffffffff1602179055508173ffffffffffffffffffffffffffffffffffffffff168173ffffffffffffffffffffffffffffffffffffffff167f8be0079c531659141344cd1fd0a4f28419497f9722a3daafe3b4186f6b6457e060405160405180910390a35050565b828054620001cd906200026f565b90600052602060002090601f016020900481019282620001f157600085556200023d565b82601f106200020c57805160ff19168380011785556200023d565b828001600101855582156200023d579182015b828111156200023c5782518255916020019190600101906200021f565b5b5090506200024c919062000250565b5090565b5b808211156200026b57600081600090555060010162000251565b5090565b600060028204905060018216806200028857607f821691505b602082108114156200029f576200029e620002a5565b5b50919050565b7f4e487b7100000000000000000000000000000000000000000000000000000000600052602260045260246000fd5b6137d380620002e46000396000f3fe6080604052600436106101b75760003560e01c8063715018a6116100ec578063a22cb4651161008a578063d5abeb0111610064578063d5abeb01146105d9578063e985e9c514610604578063f0293fd314610641578063f2fde38b1461067e576101b7565b8063a22cb4651461054a578063b88d4fde14610573578063c87b56dd1461059c576101b7565b80638da5cb5b116100c65780638da5cb5b146104af57806395652cfa146104da57806395d89b4114610503578063a0712d681461052e576101b7565b8063715018a6146104425780637a0101a21461045957806385d178f414610484576101b7565b806323b872dd11610159578063453c231011610133578063453c2310146103725780636352211e1461039d5780636817c76c146103da57806370a0823114610405576101b7565b806323b872dd146103095780633ccfd60b1461033257806342842e0e14610349576101b7565b8063081812fc11610195578063081812fc1461024f578063095ea7b31461028c57806318160ddd146102b55780632373ac22146102e0576101b7565b80630116bc2d146101bc57806301ffc9a7146101e757806306fdde0314610224575b600080fd5b3480156101c857600080fd5b506101d16106a7565b6040516101de9190612c5e565b60405180910390f35b3480156101f357600080fd5b5061020e60048036038101906102099190612678565b6106ba565b60405161021b9190612c5e565b60405180910390f35b34801561023057600080fd5b5061023961071b565b6040516102469190612c79565b60405180910390f35b34801561025b57600080fd5b506102766004803603810190610271919061270f565b6107ad565b6040516102839190612bdc565b60405180910390f35b34801561029857600080fd5b506102b360048036038101906102ae9190612613565b6107f3565b005b3480156102c157600080fd5b506102ca61090b565b6040516102d79190612f1b565b60405180910390f35b3480156102ec57600080fd5b506103076004803603810190610302919061264f565b610911565b005b34801561031557600080fd5b50610330600480360381019061032b919061250d565b610936565b005b34801561033e57600080fd5b50610347610996565b005b34801561035557600080fd5b50610370600480360381019061036b919061250d565b610ab2565b005b34801561037e57600080fd5b50610387610ad2565b6040516103949190612f1b565b60405180910390f35b3480156103a957600080fd5b506103c460048036038101906103bf919061270f565b610ad8565b6040516103d19190612bdc565b60405180910390f35b3480156103e657600080fd5b506103ef610b5f565b6040516103fc9190612f1b565b60405180910390f35b34801561041157600080fd5b5061042c600480360381019061042791906124a8565b610b65565b6040516104399190612f1b565b60405180910390f35b34801561044e57600080fd5b50610457610c1d565b005b34801561046557600080fd5b5061046e610c31565b60405161047b9190612c79565b60405180910390f35b34801561049057600080fd5b50610499610cbf565b6040516104a69190612bf7565b60405180910390f35b3480156104bb57600080fd5b506104c4610ce5565b6040516104d19190612bdc565b60405180910390f35b3480156104e657600080fd5b5061050160048036038101906104fc91906126ca565b610d0f565b005b34801561050f57600080fd5b50610518610d2d565b6040516105259190612c79565b60405180910390f35b6105486004803603810190610543919061270f565b610dbf565b005b34801561055657600080fd5b50610571600480360381019061056c91906125d7565b610f96565b005b34801561057f57600080fd5b5061059a6004803603810190610595919061255c565b610fac565b005b3480156105a857600080fd5b506105c360048036038101906105be919061270f565b61100e565b6040516105d09190612c79565b60405180910390f35b3480156105e557600080fd5b506105ee61108a565b6040516105fb9190612f1b565b60405180910390f35b34801561061057600080fd5b5061062b600480360381019061062691906124d1565b611090565b6040516106389190612c5e565b60405180910390f35b34801561064d57600080fd5b50610668600480360381019061066391906124a8565b611124565b6040516106759190612f1b565b60405180910390f35b34801561068a57600080fd5b506106a560048036038101906106a091906124a8565b61113c565b005b600c60009054906101000a900460ff1681565b6000634906490660e01b7bffffffffffffffffffffffffffffffffffffffffffffffffffffffff1916827bffffffffffffffffffffffffffffffffffffffffffffffffffffffff191614806107145750610713826111c0565b5b9050919050565b60606000805461072a90613167565b80601f016020809104026020016040519081016040528092919081815260200182805461075690613167565b80156107a35780601f10610778576101008083540402835291602001916107a3565b820191906000526020600020905b81548152906001019060200180831161078657829003601f168201915b5050505050905090565b60006107b8826112a2565b6004600083815260200190815260200160002060009054906101000a900473ffffffffffffffffffffffffffffffffffffffff169050919050565b60006107fe82610ad8565b90508073ffffffffffffffffffffffffffffffffffffffff168373ffffffffffffffffffffffffffffffffffffffff16141561086f576040517f08c379a000000000000000000000000000000000000000000000000000000000815260040161086690612ebb565b60405180910390fd5b8073ffffffffffffffffffffffffffffffffffffffff1661088e6112ed565b73ffffffffffffffffffffffffffffffffffffffff1614806108bd57506108bc816108b76112ed565b611090565b5b6108fc576040517f08c379a00000000000000000000000000000000000000000000000000000000081526004016108f390612edb565b60405180910390fd5b61090683836112f5565b505050565b60095481565b6109196113ae565b80600c60006101000a81548160ff02191690831515021790555050565b6109476109416112ed565b8261142c565b610986576040517f08c379a000000000000000000000000000000000000000000000000000000000815260040161097d90612c9b565b60405180910390fd5b6109918383836114c1565b505050565b61099e6113ae565b600047116109e1576040517f08c379a00000000000000000000000000000000000000000000000000000000081526004016109d890612e7b565b60405180910390fd5b6000600e60009054906101000a900473ffffffffffffffffffffffffffffffffffffffff1673ffffffffffffffffffffffffffffffffffffffff1647604051610a2990612bc7565b60006040518083038185875af1925050503d8060008114610a66576040519150601f19603f3d011682016040523d82523d6000602084013e610a6b565b606091505b5050905080610aaf576040517f08c379a0000000000000000000000000000000000000000000000000000000008152600401610aa690612dbb565b60405180910390fd5b50565b610acd83838360405180602001604052806000815250610fac565b505050565b600b5481565b600080610ae4836117bb565b9050600073ffffffffffffffffffffffffffffffffffffffff168173ffffffffffffffffffffffffffffffffffffffff161415610b56576040517f08c379a0000000000000000000000000000000000000000000000000000000008152600401610b4d90612e9b565b60405180910390fd5b80915050919050565b60085481565b60008073ffffffffffffffffffffffffffffffffffffffff168273ffffffffffffffffffffffffffffffffffffffff161415610bd6576040517f08c379a0000000000000000000000000000000000000000000000000000000008152600401610bcd90612ddb565b60405180910390fd5b600360008373ffffffffffffffffffffffffffffffffffffffff1673ffffffffffffffffffffffffffffffffffffffff168152602001908152602001600020549050919050565b610c256113ae565b610c2f60006117f8565b565b600d8054610c3e90613167565b80601f0160208091040260200160405190810160405280929190818152602001828054610c6a90613167565b8015610cb75780601f10610c8c57610100808354040283529160200191610cb7565b820191906000526020600020905b815481529060010190602001808311610c9a57829003601f168201915b505050505081565b600e60009054906101000a900473ffffffffffffffffffffffffffffffffffffffff1681565b6000600760009054906101000a900473ffffffffffffffffffffffffffffffffffffffff16905090565b610d176113ae565b8181600d9190610d289291906122ea565b505050565b606060018054610d3c90613167565b80601f0160208091040260200160405190810160405280929190818152602001828054610d6890613167565b8015610db55780601f10610d8a57610100808354040283529160200191610db5565b820191906000526020600020905b815481529060010190602001808311610d9857829003601f168201915b5050505050905090565b600c60009054906101000a900460ff16610e0e576040517f08c379a0000000000000000000000000000000000000000000000000000000008152600401610e0590612efb565b60405180910390fd5b60085481610e1c9190613045565b3414610e5d576040517f08c379a0000000000000000000000000000000000000000000000000000000008152600401610e5490612dfb565b60405180910390fd5b600a5481600954610e6e9190612fef565b1115610eaf576040517f08c379a0000000000000000000000000000000000000000000000000000000008152600401610ea690612e3b565b60405180910390fd5b600b5481600f60003373ffffffffffffffffffffffffffffffffffffffff1673ffffffffffffffffffffffffffffffffffffffff16815260200190815260200160002054610efd9190612fef565b1115610f3e576040517f08c379a0000000000000000000000000000000000000000000000000000000008152600401610f3590612cbb565b60405180910390fd5b60005b81811015610f925760006001600954610f5a9190612fef565b905060096000815480929190610f6f906131ca565b9190505550610f7e33826118be565b508080610f8a906131ca565b915050610f41565b5050565b610fa8610fa16112ed565b83836118dc565b5050565b610fbd610fb76112ed565b8361142c565b610ffc576040517f08c379a0000000000000000000000000000000000000000000000000000000008152600401610ff390612c9b565b60405180910390fd5b61100884848484611a49565b50505050565b606061101982611aa5565b611058576040517f08c379a000000000000000000000000000000000000000000000000000000000815260040161104f90612d9b565b60405180910390fd5b600d61106383611ae6565b604051602001611074929190612b98565b6040516020818303038152906040529050919050565b600a5481565b6000600560008473ffffffffffffffffffffffffffffffffffffffff1673ffffffffffffffffffffffffffffffffffffffff16815260200190815260200160002060008373ffffffffffffffffffffffffffffffffffffffff1673ffffffffffffffffffffffffffffffffffffffff16815260200190815260200160002060009054906101000a900460ff16905092915050565b600f6020528060005260406000206000915090505481565b6111446113ae565b600073ffffffffffffffffffffffffffffffffffffffff168173ffffffffffffffffffffffffffffffffffffffff1614156111b4576040517f08c379a00000000000000000000000000000000000000000000000000000000081526004016111ab90612cfb565b60405180910390fd5b6111bd816117f8565b50565b60007f80ac58cd000000000000000000000000000000000000000000000000000000007bffffffffffffffffffffffffffffffffffffffffffffffffffffffff1916827bffffffffffffffffffffffffffffffffffffffffffffffffffffffff1916148061128b57507f5b5e139f000000000000000000000000000000000000000000000000000000007bffffffffffffffffffffffffffffffffffffffffffffffffffffffff1916827bffffffffffffffffffffffffffffffffffffffffffffffffffffffff1916145b8061129b575061129a82611c0a565b5b9050919050565b6112ab81611aa5565b6112ea576040517f08c379a00000000000000000000000000000000000000000000000000000000081526004016112e190612e9b565b60405180910390fd5b50565b600033905090565b816004600083815260200190815260200160002060006101000a81548173ffffffffffffffffffffffffffffffffffffffff021916908373ffffffffffffffffffffffffffffffffffffffff160217905550808273ffffffffffffffffffffffffffffffffffffffff1661136883610ad8565b73ffffffffffffffffffffffffffffffffffffffff167f8c5be1e5ebec7d5bd14f71427d1e84f3dd0314c0f7b2291e5b200ac8c7c3b92560405160405180910390a45050565b6113b66112ed565b73ffffffffffffffffffffffffffffffffffffffff166113d4610ce5565b73ffffffffffffffffffffffffffffffffffffffff161461142a576040517f08c379a000000000000000000000000000000000000000000000000000000000815260040161142190612e5b565b60405180910390fd5b565b60008061143883610ad8565b90508073ffffffffffffffffffffffffffffffffffffffff168473ffffffffffffffffffffffffffffffffffffffff16148061147a57506114798185611090565b5b806114b857508373ffffffffffffffffffffffffffffffffffffffff166114a0846107ad565b73ffffffffffffffffffffffffffffffffffffffff16145b91505092915050565b8273ffffffffffffffffffffffffffffffffffffffff166114e182610ad8565b73ffffffffffffffffffffffffffffffffffffffff1614611537576040517f08c379a000000000000000000000000000000000000000000000000000000000815260040161152e90612d1b565b60405180910390fd5b600073ffffffffffffffffffffffffffffffffffffffff168273ffffffffffffffffffffffffffffffffffffffff1614156115a7576040517f08c379a000000000000000000000000000000000000000000000000000000000815260040161159e90612d5b565b60405180910390fd5b6115b48383836001611c74565b8273ffffffffffffffffffffffffffffffffffffffff166115d482610ad8565b73ffffffffffffffffffffffffffffffffffffffff161461162a576040517f08c379a000000000000000000000000000000000000000000000000000000000815260040161162190612d1b565b60405180910390fd5b6004600082815260200190815260200160002060006101000a81549073ffffffffffffffffffffffffffffffffffffffff02191690556001600360008573ffffffffffffffffffffffffffffffffffffffff1673ffffffffffffffffffffffffffffffffffffffff168152602001908152602001600020600082825403925050819055506001600360008473ffffffffffffffffffffffffffffffffffffffff1673ffffffffffffffffffffffffffffffffffffffff16815260200190815260200160002060008282540192505081905550816002600083815260200190815260200160002060006101000a81548173ffffffffffffffffffffffffffffffffffffffff021916908373ffffffffffffffffffffffffffffffffffffffff160217905550808273ffffffffffffffffffffffffffffffffffffffff168473ffffffffffffffffffffffffffffffffffffffff167fddf252ad1be2c89b69c2b068fc378daa952ba7f163c4a11628f55a4df523b3ef60405160405180910390a46117b68383836001611c7a565b505050565b60006002600083815260200190815260200160002060009054906101000a900473ffffffffffffffffffffffffffffffffffffffff169050919050565b6000600760009054906101000a900473ffffffffffffffffffffffffffffffffffffffff16905081600760006101000a81548173ffffffffffffffffffffffffffffffffffffffff021916908373ffffffffffffffffffffffffffffffffffffffff1602179055508173ffffffffffffffffffffffffffffffffffffffff168173ffffffffffffffffffffffffffffffffffffffff167f8be0079c531659141344cd1fd0a4f28419497f9722a3daafe3b4186f6b6457e060405160405180910390a35050565b6118d8828260405180602001604052806000815250611c80565b5050565b8173ffffffffffffffffffffffffffffffffffffffff168373ffffffffffffffffffffffffffffffffffffffff16141561194b576040517f08c379a000000000000000000000000000000000000000000000000000000000815260040161194290612d7b565b60405180910390fd5b80600560008573ffffffffffffffffffffffffffffffffffffffff1673ffffffffffffffffffffffffffffffffffffffff16815260200190815260200160002060008473ffffffffffffffffffffffffffffffffffffffff1673ffffffffffffffffffffffffffffffffffffffff16815260200190815260200160002060006101000a81548160ff0219169083151502179055508173ffffffffffffffffffffffffffffffffffffffff168373ffffffffffffffffffffffffffffffffffffffff167f17307eab39ab6107e8899845ad3d59bd9653f200f220920489ca2b5937696c3183604051611a3c9190612c5e565b60405180910390a3505050565b611a548484846114c1565b611a6084848484611cdb565b611a9f576040517f08c379a0000000000000000000000000000000000000000000000000000000008152600401611a9690612cdb565b60405180910390fd5b50505050565b60008073ffffffffffffffffffffffffffffffffffffffff16611ac7836117bb565b73ffffffffffffffffffffffffffffffffffffffff1614159050919050565b606060006001611af584611e72565b01905060008167ffffffffffffffff811115611b3a577f4e487b7100000000000000000000000000000000000000000000000000000000600052604160045260246000fd5b6040519080825280601f01601f191660200182016040528015611b6c5781602001600182028036833780820191505090505b509050600082602001820190505b600115611bff578080600190039150507f3031323334353637383961626364656600000000000000000000000000000000600a86061a8153600a8581611be9577f4e487b7100000000000000000000000000000000000000000000000000000000600052601260045260246000fd5b0494506000851415611bfa57611bff565b611b7a565b819350505050919050565b60007f01ffc9a7000000000000000000000000000000000000000000000000000000007bffffffffffffffffffffffffffffffffffffffffffffffffffffffff1916827bffffffffffffffffffffffffffffffffffffffffffffffffffffffff1916149050919050565b50505050565b50505050565b611c8a83836120a9565b611c976000848484611cdb565b611cd6576040517f08c379a0000000000000000000000000000000000000000000000000000000008152600401611ccd90612cdb565b60405180910390fd5b505050565b6000611cfc8473ffffffffffffffffffffffffffffffffffffffff166122c7565b15611e65578373ffffffffffffffffffffffffffffffffffffffff1663150b7a02611d256112ed565b8786866040518563ffffffff1660e01b8152600401611d479493929190612c12565b602060405180830381600087803b158015611d6157600080fd5b505af1925050508015611d9257506040513d601f19601f82011682018060405250810190611d8f91906126a1565b60015b611e15573d8060008114611dc2576040519150601f19603f3d011682016040523d82523d6000602084013e611dc7565b606091505b50600081511415611e0d576040517f08c379a0000000000000000000000000000000000000000000000000000000008152600401611e0490612cdb565b60405180910390fd5b805181602001fd5b63150b7a0260e01b7bffffffffffffffffffffffffffffffffffffffffffffffffffffffff1916817bffffffffffffffffffffffffffffffffffffffffffffffffffffffff191614915050611e6a565b600190505b949350505050565b600080600090507a184f03e93ff9f4daa797ed6e38ed64bf6a1f0100000000000000008310611ef6577a184f03e93ff9f4daa797ed6e38ed64bf6a1f0100000000000000008381611eec577f4e487b7100000000000000000000000000000000000000000000000000000000600052601260045260246000fd5b0492506040810190505b6d04ee2d6d415b85acef81000000008310611f59576d04ee2d6d415b85acef81000000008381611f4f577f4e487b7100000000000000000000000000000000000000000000000000000000600052601260045260246000fd5b0492506020810190505b662386f26fc100008310611fae57662386f26fc100008381611fa4577f4e487b7100000000000000000000000000000000000000000000000000000000600052601260045260246000fd5b0492506010810190505b6305f5e1008310611ffd576305f5e1008381611ff3577f4e487b7100000000000000000000000000000000000000000000000000000000600052601260045260246000fd5b0492506008810190505b612710831061204857612710838161203e577f4e487b7100000000000000000000000000000000000000000000000000000000600052601260045260246000fd5b0492506004810190505b606483106120915760648381612087577f4e487b7100000000000000000000000000000000000000000000000000000000600052601260045260246000fd5b0492506002810190505b600a83106120a0576001810190505b80915050919050565b600073ffffffffffffffffffffffffffffffffffffffff168273ffffffffffffffffffffffffffffffffffffffff161415612119576040517f08c379a000000000000000000000000000000000000000000000000000000000815260040161211090612e1b565b60405180910390fd5b61212281611aa5565b15612162576040517f08c379a000000000000000000000000000000000000000000000000000000000815260040161215990612d3b565b60405180910390fd5b612170600083836001611c74565b61217981611aa5565b156121b9576040517f08c379a00000000000000000000000000000000000000000000000000000000081526004016121b090612d3b565b60405180910390fd5b6001600360008473ffffffffffffffffffffffffffffffffffffffff1673ffffffffffffffffffffffffffffffffffffffff16815260200190815260200160002060008282540192505081905550816002600083815260200190815260200160002060006101000a81548173ffffffffffffffffffffffffffffffffffffffff021916908373ffffffffffffffffffffffffffffffffffffffff160217905550808273ffffffffffffffffffffffffffffffffffffffff16600073ffffffffffffffffffffffffffffffffffffffff167fddf252ad1be2c89b69c2b068fc378daa952ba7f163c4a11628f55a4df523b3ef60405160405180910390a46122c3600083836001611c7a565b5050565b6000808273ffffffffffffffffffffffffffffffffffffffff163b119050919050565b8280546122f690613167565b90600052602060002090601f016020900481019282612318576000855561235f565b82601f1061233157803560ff191683800117855561235f565b8280016001018555821561235f579182015b8281111561235e578235825591602001919060010190612343565b5b50905061236c9190612370565b5090565b5b80821115612389576000816000905550600101612371565b5090565b60006123a061239b84612f5b565b612f36565b9050828152602081018484840111156123b857600080fd5b6123c3848285613125565b509392505050565b6000813590506123da81613741565b92915050565b6000813590506123ef81613758565b92915050565b6000813590506124048161376f565b92915050565b6000815190506124198161376f565b92915050565b600082601f83011261243057600080fd5b813561244084826020860161238d565b91505092915050565b60008083601f84011261245b57600080fd5b8235905067ffffffffffffffff81111561247457600080fd5b60208301915083600182028301111561248c57600080fd5b9250929050565b6000813590506124a281613786565b92915050565b6000602082840312156124ba57600080fd5b60006124c8848285016123cb565b91505092915050565b600080604083850312156124e457600080fd5b60006124f2858286016123cb565b9250506020612503858286016123cb565b9150509250929050565b60008060006060848603121561252257600080fd5b6000612530868287016123cb565b9350506020612541868287016123cb565b925050604061255286828701612493565b9150509250925092565b6000806000806080858703121561257257600080fd5b6000612580878288016123cb565b9450506020612591878288016123cb565b93505060406125a287828801612493565b925050606085013567ffffffffffffffff8111156125bf57600080fd5b6125cb8782880161241f565b91505092959194509250565b600080604083850312156125ea57600080fd5b60006125f8858286016123cb565b9250506020612609858286016123e0565b9150509250929050565b6000806040838503121561262657600080fd5b6000612634858286016123cb565b925050602061264585828601612493565b9150509250929050565b60006020828403121561266157600080fd5b600061266f848285016123e0565b91505092915050565b60006020828403121561268a57600080fd5b6000612698848285016123f5565b91505092915050565b6000602082840312156126b357600080fd5b60006126c18482850161240a565b91505092915050565b600080602083850312156126dd57600080fd5b600083013567ffffffffffffffff8111156126f757600080fd5b61270385828601612449565b92509250509250929050565b60006020828403121561272157600080fd5b600061272f84828501612493565b91505092915050565b612741816130b1565b82525050565b6127508161309f565b82525050565b61275f816130c3565b82525050565b600061277082612fa1565b61277a8185612fb7565b935061278a818560208601613134565b612793816132a0565b840191505092915050565b60006127a982612fac565b6127b38185612fd3565b93506127c3818560208601613134565b6127cc816132a0565b840191505092915050565b60006127e282612fac565b6127ec8185612fe4565b93506127fc818560208601613134565b80840191505092915050565b6000815461281581613167565b61281f8186612fe4565b9450600182166000811461283a576001811461284b5761287e565b60ff1983168652818601935061287e565b61285485612f8c565b60005b8381101561287657815481890152600182019150602081019050612857565b838801955050505b50505092915050565b6000612894602d83612fd3565b915061289f826132b1565b604082019050919050565b60006128b7601883612fd3565b91506128c282613300565b602082019050919050565b60006128da603283612fd3565b91506128e582613329565b604082019050919050565b60006128fd602683612fd3565b915061290882613378565b604082019050919050565b6000612920602583612fd3565b915061292b826133c7565b604082019050919050565b6000612943601c83612fd3565b915061294e82613416565b602082019050919050565b6000612966602483612fd3565b91506129718261343f565b604082019050919050565b6000612989601983612fd3565b91506129948261348e565b602082019050919050565b60006129ac601483612fd3565b91506129b7826134b7565b602082019050919050565b60006129cf601c83612fd3565b91506129da826134e0565b602082019050919050565b60006129f2602983612fd3565b91506129fd82613509565b604082019050919050565b6000612a15601483612fd3565b9150612a2082613558565b602082019050919050565b6000612a38602083612fd3565b9150612a4382613581565b602082019050919050565b6000612a5b601e83612fd3565b9150612a66826135aa565b602082019050919050565b6000612a7e600583612fe4565b9150612a89826135d3565b600582019050919050565b6000612aa1602083612fd3565b9150612aac826135fc565b602082019050919050565b6000612ac4601683612fd3565b9150612acf82613625565b602082019050919050565b6000612ae7601883612fd3565b9150612af28261364e565b602082019050919050565b6000612b0a602183612fd3565b9150612b1582613677565b604082019050919050565b6000612b2d600083612fc8565b9150612b38826136c6565b600082019050919050565b6000612b50603d83612fd3565b9150612b5b826136c9565b604082019050919050565b6000612b73601e83612fd3565b9150612b7e82613718565b602082019050919050565b612b928161311b565b82525050565b6000612ba48285612808565b9150612bb082846127d7565b9150612bbb82612a71565b91508190509392505050565b6000612bd282612b20565b9150819050919050565b6000602082019050612bf16000830184612747565b92915050565b6000602082019050612c0c6000830184612738565b92915050565b6000608082019050612c276000830187612747565b612c346020830186612747565b612c416040830185612b89565b8181036060830152612c538184612765565b905095945050505050565b6000602082019050612c736000830184612756565b92915050565b60006020820190508181036000830152612c93818461279e565b905092915050565b60006020820190508181036000830152612cb481612887565b9050919050565b60006020820190508181036000830152612cd4816128aa565b9050919050565b60006020820190508181036000830152612cf4816128cd565b9050919050565b60006020820190508181036000830152612d14816128f0565b9050919050565b60006020820190508181036000830152612d3481612913565b9050919050565b60006020820190508181036000830152612d5481612936565b9050919050565b60006020820190508181036000830152612d7481612959565b9050919050565b60006020820190508181036000830152612d948161297c565b9050919050565b60006020820190508181036000830152612db48161299f565b9050919050565b60006020820190508181036000830152612dd4816129c2565b9050919050565b60006020820190508181036000830152612df4816129e5565b9050919050565b60006020820190508181036000830152612e1481612a08565b9050919050565b60006020820190508181036000830152612e3481612a2b565b9050919050565b60006020820190508181036000830152612e5481612a4e565b9050919050565b60006020820190508181036000830152612e7481612a94565b9050919050565b60006020820190508181036000830152612e9481612ab7565b9050919050565b60006020820190508181036000830152612eb481612ada565b9050919050565b60006020820190508181036000830152612ed481612afd565b9050919050565b60006020820190508181036000830152612ef481612b43565b9050919050565b60006020820190508181036000830152612f1481612b66565b9050919050565b6000602082019050612f306000830184612b89565b92915050565b6000612f40612f51565b9050612f4c8282613199565b919050565b6000604051905090565b600067ffffffffffffffff821115612f7657612f75613271565b5b612f7f826132a0565b9050602081019050919050565b60008190508160005260206000209050919050565b600081519050919050565b600081519050919050565b600082825260208201905092915050565b600081905092915050565b600082825260208201905092915050565b600081905092915050565b6000612ffa8261311b565b91506130058361311b565b9250827fffffffffffffffffffffffffffffffffffffffffffffffffffffffffffffffff0382111561303a57613039613213565b5b828201905092915050565b60006130508261311b565b915061305b8361311b565b9250817fffffffffffffffffffffffffffffffffffffffffffffffffffffffffffffffff048311821515161561309457613093613213565b5b828202905092915050565b60006130aa826130fb565b9050919050565b60006130bc826130fb565b9050919050565b60008115159050919050565b60007fffffffff0000000000000000000000000000000000000000000000000000000082169050919050565b600073ffffffffffffffffffffffffffffffffffffffff82169050919050565b6000819050919050565b82818337600083830152505050565b60005b83811015613152578082015181840152602081019050613137565b83811115613161576000848401525b50505050565b6000600282049050600182168061317f57607f821691505b6020821081141561319357613192613242565b5b50919050565b6131a2826132a0565b810181811067ffffffffffffffff821117156131c1576131c0613271565b5b80604052505050565b60006131d58261311b565b91507fffffffffffffffffffffffffffffffffffffffffffffffffffffffffffffffff82141561320857613207613213565b5b600182019050919050565b7f4e487b7100000000000000000000000000000000000000000000000000000000600052601160045260246000fd5b7f4e487b7100000000000000000000000000000000000000000000000000000000600052602260045260246000fd5b7f4e487b7100000000000000000000000000000000000000000000000000000000600052604160045260246000fd5b6000601f19601f8301169050919050565b7f4552433732313a2063616c6c6572206973206e6f7420746f6b656e206f776e6560008201527f72206f7220617070726f76656400000000000000000000000000000000000000602082015250565b7f45786365656473206d61782077616c6c6574206c696d69740000000000000000600082015250565b7f4552433732313a207472616e7366657220746f206e6f6e20455243373231526560008201527f63656976657220696d706c656d656e7465720000000000000000000000000000602082015250565b7f4f776e61626c653a206e6577206f776e657220697320746865207a65726f206160008201527f6464726573730000000000000000000000000000000000000000000000000000602082015250565b7f4552433732313a207472616e736665722066726f6d20696e636f72726563742060008201527f6f776e6572000000000000000000000000000000000000000000000000000000602082015250565b7f4552433732313a20746f6b656e20616c7265616479206d696e74656400000000600082015250565b7f4552433732313a207472616e7366657220746f20746865207a65726f2061646460008201527f7265737300000000000000000000000000000000000000000000000000000000602082015250565b7f4552433732313a20617070726f766520746f2063616c6c657200000000000000600082015250565b7f546f6b656e20646f6573206e6f74206578697374000000000000000000000000600082015250565b7f5769746864726177616c206661696c65642c2074727920616761696e00000000600082015250565b7f4552433732313a2061646472657373207a65726f206973206e6f74206120766160008201527f6c6964206f776e65720000000000000000000000000000000000000000000000602082015250565b7f496e636f7272656374206d696e742076616c7565000000000000000000000000600082015250565b7f4552433732313a206d696e7420746f20746865207a65726f2061646472657373600082015250565b7f536f6c64206f75742c207761697420756e74696c206e6578742074696d650000600082015250565b7f2e6a736f6e000000000000000000000000000000000000000000000000000000600082015250565b7f4f776e61626c653a2063616c6c6572206973206e6f7420746865206f776e6572600082015250565b7f4e6f2062616c616e636520746f20776974686472617700000000000000000000600082015250565b7f4552433732313a20696e76616c696420746f6b656e2049440000000000000000600082015250565b7f4552433732313a20617070726f76616c20746f2063757272656e74206f776e6560008201527f7200000000000000000000000000000000000000000000000000000000000000602082015250565b50565b7f4552433732313a20617070726f76652063616c6c6572206973206e6f7420746f60008201527f6b656e206f776e6572206f7220617070726f76656420666f7220616c6c000000602082015250565b7f4d696e74696e672069732064697361626c65642c2074727920616761696e0000600082015250565b61374a8161309f565b811461375557600080fd5b50565b613761816130c3565b811461376c57600080fd5b50565b613778816130cf565b811461378357600080fd5b50565b61378f8161311b565b811461379a57600080fd5b5056fea2646970667358221220946d437bf18dea9b507251d41613318a21c5239dd69a5d5adefb787a4dfd5be664736f6c63430008040033",
  "linkReferences": {},
  "deployedLinkReferences": {}
}